S014000054656D706D6F6E426F6172642E7372656348
S11300000C9413010C9430010C9430010C943001C5
S11300100C9430010C9430010C9430010C940402C3
S11300200C9490020C9430010C9430010C94300127
S11300300C9430010C941E030C9430010C942B038B
S11300400C9430010C94DD010C9476010C94300175
S11300500C9430010C9430010C9430010C94300158
S11300600C9430010C9430010C9430010C94300148
S11300700C9430010C9430010C9430010C94300138
S11300800C94B1040C94D5040C9430010C9490039A
S11300900C9430019C04A004A004A004A004A004B7
S11300A0A004A004B003A004A004A004A004A0041D
S11300B0A004A004B003A004A004A004A004A0040D
S11300C0A004A004B803A004A004A004A004A004F5
S11300D0A004A004DE03A004A004A004A004A004BF
S11300E0A004A004B803A004A004A004A004A004D5
S11300F0A004A004E403A004A004A004A004A00499
S1130100A004A004EA03A004A004A004A004A00482
S1130110A004A004FC03A004A004A004A004A00460
S1130120A004A0042604A004A004A004A004A00425
S1130130A004A004F003A004A004A004A004A0044C
S1130140A004A0040A04A004A004A004A004A00421
S1130150A004A0042904A004A004A004A004A004F2
S1130160A004A0042904A004A004A004A004A004E2
S1130170A004A0042904A004A004A004A004A004D2
S1130180A004A0042904A004A004A004A004A004C2
S1130190A004A0043204A004A004A004A004A004A9
S11301A0A004A0046304A004A004A004A004A00468
S11301B0A004A0043204A004A004A004A004A00489
S11301C0A004A0046304A004A004A004A004A00448
S11301D0A004A0044A04A004A004A004A004A00451
S11301E0A004A0046704A004A004A004A004A00424
S11301F0A004A0046704A004A004A004A004A00414
S1130200A004A0047C04A004A004A004A004A004EE
S1130210A004A0049604A004A004A004A004A004C4
S1130220A004A004960411241FBECFEFD8E0DEBFC3
S1130230CDBF11E0A0E0B1E0E2EEFAE002C005902B
S11302400D92A030B107D9F721E0A0E0B1E001C0E0
S11302501D92AA3AB207E1F70E941C030C946F05A1
S11302600C940000883080F4EEEDF0E0408121E051
S113027030E0B90102C0660F771F8A95E2F7CB011F
S11302808095842380830895EFEDF0E040818850C9
S113029021E030E0B90102C0660F771F8A95E2F7CA
S11302A0CB018095842380830895883078F4EEED23
S11302B0F0E0408121E030E0B90102C0660F771F11
S11302C08A95E2F7CB01842B80830895EFEDF0E06B
S11302D04081885021E030E0B90102C0660F771FE9
S11302E08A95E2F7CB01842B808308951F920F92A5
S11302F00FB60F9211242F933F934F935F936F93F5
S11303007F938F939F93AF93BF93CF93EF93FF9379
S1130310C091ED008091EC00807F803FB1F180912D
S1130320EC0082958F7090E1899F900111242093B5
S1130330ED009091EE0096FF09C0EEEEF0E09081A2
S113034010821092EF000E94550123C09091720117
S11303509F5F90937201E82FE695E695E695F0E0AD
S1130360E059FE4F9081482F477021E030E002C0F1
S1130370220F331F4A95E2F7292B2083EEEEF0E09B
S1130380908110820E94320104C0EAEDF0E0808185
S11303908083C093ED00FF91EF91CF91BF91AF9116
S11303A09F918F917F916F915F914F913F912F9189
S11303B00F900FBE0F901F9018951F920F920FB6BB
S11303C00F9211248F939F93809178018F5F809374
S11303D07801909178018091770198130EC08091F3
S11303E07B0190917C0190937A0180937901109222
S11303F0780110927C0110927B019F918F910F9054
S11304000FBE0F901F9018951F920F920FB60F9268
S113041011248F939F93AF93BF938CB186FF3CC0FD
S11304208823ECF480917D0190917E01A0917F015D
S1130430B09180010196A11DB11D80937D0190931F
S11304407E01A0937F01B093800180917B01909104
S11304507C01019690937C0180937B0158C080912C
S11304607D0190917E01A0917F01B091800101975F
S1130470A109B10980937D0190937E01A0937F012E
S1130480B093800180917B0190917C0101979093BE
S11304907C0180937B013BC08823ECF480917D0137
S11304A090917E01A0917F01B09180010197A109F3
S11304B0B10980937D0190937E01A0937F01B09355
S11304C0800180917B0190917C01019790937C0144
S11304D080937B011CC080917D0190917E01A0914D
S11304E07F01B09180010196A11DB11D80937D0112
S11304F090937E01A0937F01B093800180917B0152
S113050090917C01019690937C0180937B01BF9133
S1130510AF919F918F910F900FBE0F901F901895E0
S11305201F920F920FB60F9211248F939F93AF9344
S1130530BF938CB18823E4F586FF1DC080917D01B3
S113054090917E01A0917F01B09180010197A10952
S1130550B10980937D0190937E01A0937F01B093B4
S1130560800180917B0190917C01019790937C01A3
S113057080937B0158C080917D0190917E01A09170
S11305807F01B09180010196A11DB11D80937D0171
S113059090937E01A0937F01B093800180917B01B1
S11305A090917C01019690937C0180937B013BC0E8
S11305B086FF1DC080917D0190917E01A0917F01F5
S11305C0B09180010196A11DB11D80937D0190938E
S11305D07E01A0937F01B093800180917B01909173
S11305E07C01019690937C0180937B011CC08091D7
S11305F07D0190917E01A0917F01B09180010197CE
S1130600A109B10980937D0190937E01A0937F019C
S1130610B093800180917B0190917C01019790932C
S11306207C0180937B01BF91AF919F918F910F903B
S11306300FBE0F901F901895A895FECF1F920F9292
S11306400FB60F92112444980F900FBE0F901F9075
S11306501895449A08951F920F920FB60F92112481
S11306602F933F934F935F936F937F938F939F93B6
S1130670AF93BF93EF93FF93809182019091830195
S1130680A0918401B09185010196A11DB11D8093B3
S1130690820190938301A0938401B093850180919A
S11306A0820190918301A0918401B09185018370AE
S11306B09927AA27BB27892B8A2B8B2B51F480914E
S11306C0820190918301A0918401B09185010E94DF
S11306D0060581E0809381010E942903FF91EF9137
S11306E0BF91AF919F918F917F916F915F914F9146
S11306F03F912F910F900FBE0F901F90189585ED8D
S11307008093BC00ECEBF0E0808184FDFDCF10927F
S11307106D01089585EC8093BC0010926D010895DD
S11307201F920F920FB60F9211242F933F934F9362
S11307305F936F937F938F939F93AF93BF93EF9345
S1130740FF938091B900E82FE87F8E2F90E0893CD9
S1130750910508F0F5C0FC01E65BFF4F0C946905B8
S113076080916C018093BB0085EC8093BC00E8C051
S11307709091450180914401981780F4E0914501DE
S113078081E08E0F80934501F0E0EA5BFE4F8081AB
S11307908093BB0085EC8093BC00D2C080916B0138
S11307A0882319F00E947F03CBC081E080936A0103
S11307B084EA8093BC0010926D01C2C080E28093F1
S11307C000010E947F03BCC080E3809300010E946B
S11307D07F03B6C088E3809300010E948A03B0C0FF
S11307E0E091450181E08E0F809345018091BB002B
S11307F0F0E0EA5BFE4F80839091450180914401D3
S1130800981720F485EC8093BC009AC085E8809307
S1130810BC0096C0E091450181E08E0F80934501B4
S11308208091BB00F0E0EA5BFE4F808380916B0116
S1130830882319F00E947F0383C081E080936A01BA
S113084084EA8093BC0010926D017AC00E947F03F9
S113085077C083E080936D011092010185EC809351
S1130860BC006EC080910101803280F4E0910101EE
S113087081E08E0F809301018091BB00F0E0EE5F78
S1130880FE4F808385EC8093BC005AC085E880933A
S1130890BC0056C00E948A0380910101803230F46A
S11308A0E0910101F0E0EE5FFE4F108260910101E2
S11308B070E0E0916601F091670182E091E00995B2
S11308C0109201013DC085E88093BC0039C084E0EA
S11308D080936D011092230110922201E09168012E
S11308E0F0916901099580912201811105C081E08F
S11308F08093220110922401E091230181E08E0F64
S113090080932301F0E0EC5DFE4F80818093BB0077
S11309109091230180912201981720F485EC809313
S1130920BC000EC085E88093BC000AC085EC8093AF
S1130930BC0010926D0104C0109200010E947F035C
S1130940FF91EF91BF91AF919F918F917F916F91A3
S11309505F914F913F912F910F900FBE0F901F9079
S113096018951F920F920FB60F9211248F93EF9345
S1130970FF9380919701813120F080E1809397016A
S11309800CC0E091970181E08E0F80939701F0E015
S11309908091CE00E856FE4F8083FF91EF918F91B6
S11309A00F900FBE0F901F9018951F920F920FB6C5
S11309B00F9211248F939F93EF93FF93E091A801DB
S11309C081E08E0F8093A801F0E0EA57FE4F80810A
S11309D08093CE009091A80180919601981720F4FD
S11309E08091A801813148F0E9ECF0E080818F7DAD
S11309F08083109296011092A801FF91EF919F912C
S1130A008F910F900FBE0F901F901895EF92FF9249
S1130A100F931F93CF93DF937C018091A9018111E0
S1130A2002C012B83BC0E4E0F0E0C0E0D0E001E076
S1130A3010E08091A90190E00C2E02C09595879555
S1130A400A94E2F7282F237069F0622F70E0660F92
S1130A50771F6F5F7F4FC7010E945505892B79F07F
S1130A60233069F092B198010E2E02C0220F331F79
S1130A700A94E2F7822F8095892382B90AC022B1B1
S1130A80C8010E2E02C0880F991F0A94E2F7822B28
S1130A9082B922963196E830F10559F6DF91CF916B
S1130AA01F910F91FF90EF900895AA1BBB1B51E17A
S1130AB007C0AA1FBB1FA617B70710F0A61BB70BCA
S1130AC0881F991F5A95A9F780959095BC01CD016F
S1130AD00895EE0FFF1F0590F491E02D0994F8940A
S1050AE0FFCF42
S9030000FC
